:020000022000DC
:1060000000000120756302005D6302005F6302000F
:106010006163020063630200656302000000000028
:1060200000000000000000000000000067630200A4
:1060300069630200000000006B6302006D630200F0
:10604000299D02006F6302002DA102006F63020010
:106050006F6302006F630200E19F0200FDAA02006D
:106060006F63020031BA02006F6302006F630200C7
:106070006F6302006F6302006F6302006F630200D0
:106080006F630200517802006F6302006F630200C9
:106090006F6302006F630200E50603006F63020096
:1060A0006F6302006F6302006F6302006F630200A0
:1060B0006F6302006F630200000000000000000038
:1060C0006F6302006F6302006F6302006F63020080
:1060D0006F6302006F6302006F6302000000000044
:1060E00000000000000000000000000000000000B0
:1060F00000000000000000000000000000000000A0
:10610000000000000000000000000000000000008F
:10611000000000000000000000000000000000007F
:10612000000000000000000000000000000000006F
:10613000000000000000000000000000000000005F
:10614000000000000000000000000000000000004F
:10615000000000000000000000000000000000003F
:10616000000000000000000000000000000000002F
:10617000000000000000000000000000000000001F
:10618000000000000000000000000000000000000F
:1061900000000000000000000000000000000000FF
:1061A00000000000000000000000000000000000EF
:1061B00000000000000000000000000000000000DF
:1061C00000000000000000000000000000000000CF
:1061D00000000000000000000000000000000000BF
:1061E00000000000000000000000000000000000AF
:1061F000000000000000000000000000000000009F
:10620000354936480A1A02D0072291438D4634494F
:1062100034480A1A06D00722914381F309880222E2
:1062200082F3148830483149314A00F044F831484B
:106230003149324A00F03FF831483249324A00F0E1
:106240003AF832483249334A00F035F83248334997
:10625000334A00F030F833483349344A00F02BF821
:1062600033483449344A00F026F83448344900228F
:1062700000F02CF833483449002200F027F8334866
:106280003349091A082902DB002202604160314AC1
:1062900090471F481F49884205D00268043003B464
:1062A000904703BCF7E700208646EC46002000211B
:1062B000294A9047FEE7884207D0521A05D0037852
:1062C00001300B700131013AF9D17047884202D098
:1062D00002700130FAE770470000012000E0002062
:1062E00000000120000001200C420300FC2A0020D5
:1062F000602B0020D0630200D0630200E81403008A
:106300000C420300FC2A0020FC2A002098160300FF
:1063100098160300981603009816030098160300B9
:106320009816030098160300981603000A4203000B
:1063300070420300602B0020602B0020602B0020A7
:106340009C4100209C4100209C4100209C41002059
:106350009C6100209D6302004DBA0200FEE7FEE74B
:10636000FEE7FEE7FEE7FEE7FEE7FEE7FEE7FEE705
:1063700000F002B8FFF7FCBF0F484FF00701884359
:1063800085460E4880470E48016841F4700101605F
:10639000BFF34F8FBFF36F8FFFF732BF09480A4932
:1063A0000A4A884207D0521A05D0037801300B7090
:1063B0000131013AF9D1704700000120D99602005D
:1063C00088ED00E084160300E82A0020FC2A002063
:1063D0007047000007B5044B0093044A402300F0C7
:1063E00032F803B05DF804FBF1630200612B00207A
:1063F0002DE9F84388461446B2B10F4B0F4E0325E2
:10640000002743F00109224608EB0701002005F0B0
:106410000FFD0744241A48B933782BB14FF47A4062
:10642000C847013D02D13570BDE8F88301233370C0
:10643000002CE8D1F8E700BFA0160300602B002075
:10644000704705F025BDF0B595B01D4616460846C7
:106450000C4603F04BF81A9B0D93CDE90865002517
:106460002B46082205A920460A958DF82C500C953C
:1064700003F058F8079B0293069B03939DF8143092
:106480008DF8115003F00302012A1DD1BDF814202C
:10649000059DC3F3C203C2F383168DF81030B2001A
:1064A00008230EA9204603F03DF8C5F3952508AB57
:1064B0000093324602AB0EA9284600F0DFFB2046CF
:1064C00003F018F815B0F0BD022AF8D1BDF8165047
:1064D000C3F3C203C5F389158DF810300827082DC2
:1064E0002E4628BF08263B4632460EA9204603F01A
:1064F00019F8AD1B08AB02AA31460EA8374400F0CC
:1065000021FC002DEBD1DAE7014B01221A70704714
:10651000E22B00207047000070B50E4D06460FCDEF
:1065200088B06C460FC495E80F00002E84E80F0079
:10653000094A0A484FF0060308BF00226946009343
:1065400003F07AFB08B100F0CFFD054B1E7008B0D8
:1065500070BD00BFB416030009650200FC2A0020CC
:10656000A12B002007B5044B0093044A4023FFF7FA
:106570006AFF03B05DF804FB81650200A22B0020D6
:1065800038B50D480D4C0E4D002323700378EB5C9D
:10659000D2B263B1043004F057FA08B100F0A4FDA0
:1065A000084B1A7812B12378002BFBD038BD0C3081
:1065B00003F0F8FFF1E700BFFC2A0020E22B0020E7
:1065C00078340020A12B002008B50848084A037839
:1065D000D35C3BB1043004F09BF9BDE808400020D7
:1065E000FFF79ABF0C3003F067FFF6E7FC2A0020A4
:1065F000783400200120FFF78FBF000038B50A4D26
:10660000FFF71FFF0421284600F0A2FA074B0124E0
:106610005C71FFF7EFFF042105F1100000F098FA1C
:10662000034B5C7138BD00BF64160300102B0020C3
:10663000182B0020037813F0040216D003F0030394
:10664000012B03D0022B09D0012070470A68008873
:106650000232C0F3831002440A60F5E70B684288F7
:10666000023303EB92130B60EEE710467047000015
:106670002DE9F04FDFF81CA187B00F460023044638
:10668000861C0DF1070015468DF8073000F072FFEB
:10669000DAF804203A60DAF8083003F580739B1AC0
:1066A0000AF21C470AF583690AF21448B3421AD366
:1066B0000020002D69D004F00F039B0143F0050377
:1066C00063F30F00DAF80430DAB2033233444AF8E5
:1066D00022009DF80700CAF8043000F06FFF012087
:1066E00007B0BDE8F08F0121384602F06BF948464B
:1066F00002F083F9404602F080F9DAF808000290CF
:10670000C0B203300AEB800002A9FFF793FF029B9F
:1067100030BBDAB20AEB8202D16803919A1C0133D2
:10672000DBB20AEB83030292D3F80CB001F003034F
:10673000012B22D0022B15D08346404602F060F98F
:1067400010B1029BCAF808305946384602F03AF9AF
:10675000DAF80830DAF8042003F580739B1AA5E70D
:10676000D8B2CEE7BDF80E30C3F3891303334FEA36
:106770001B4B02EB93030293DFE7BDF80C30C3F32E
:1067800083134FEA1B4B1344F5E7A40544F00600BE
:1067900098E700BFB42C0020064B074810B5002234
:1067A0001A7002F05CFE044610B9044802F004FFBF
:1067B000204610BDB42C00207815030018170300E4
:1067C00030B50A4C71B10A4A0A49121BD20800239B
:1067D0009A4201D1002030BD31F82350854202D0C9
:1067E0000133F5E7034654F83300F4E78C15030052
:1067F00064160300FC2A0020094B013903EBC0009A
:10680000032909D8DFE801F00A02040604207047D2
:106810000079704740797047002070470220704728
:106820008C150300034BD3E90130C31A5842584179
:10683000704700BFB42C00202DE9F04186B0FFF76F
:10684000F1FF0546002840F0ED80774CC4F81804AD
:10685000BFF34F8FA3680293DBB2033304EB8300D3
:1068600002A9FFF7E7FE029B18B1D4F81824002A0A
:106870005AD0DAB2991C013304EB8202DBB204EB8A
:106880008303D268DB68049302F00303022B0392B4
:10689000029154D1BDF80E306448C3F38917502FCC
:1068A0003E4628BF502606F1080166F38F13C1F358
:1068B0000901ADF80E3002F0EAFD0546002800F0AF
:1068C0009C8002F013FE0023082203A9284602F050
:1068D0001FFE0299CB43DBB20133C9B20331B6EBE1
:1068E000830F4FEA830204EB810125D95FFA82F816
:1068F0000823A6EB0806284602F00AFEF6B208F1C5
:1069000008034B4903F0FC033246284602F000FE20
:10691000029B033703EB97070297D4F81834002B38
:1069200043D1D4F8106453E062689A4294D8A260CC
:10693000284606B0BDE8F08108233246E5E7012B82
:106940005BD1BDF80C303948C3F38311062928BF49
:10695000062161F38913023101F00F018900ADF8BE
:106960000C3002F094FD0546002846D002F0BEFD32
:106970000023082203A9284602F0CAFD0026BDF81C
:106980000C20C2F38312B300964203F10803C4D271
:1069900002994A1CC9B20331029204EB810104221C
:1069A000284602F0B5FD0136E9E7284602F0A2FDCF
:1069B000FFF738FF80F00100C5B2B9E7F3685B79F3
:1069C00023B1336829461B6830469847F3681E6830
:1069D000002EF3D1284602F08DFD0DF107008DF851
:1069E000076000F0C7FDD4F818340BB9029BA36010
:1069F0009DF8070000F0E2FDDAE7D4F8104454B93E
:106A00000C4B0D480D49C01AC008000440F00200AC
:106A100000F05CF8CCE7236820469B689847E36861
:106A20001C68ECE7002583E7B42C002078150300F0
:106A3000C02C00208C150300BC15030001170300B7
:106A40002DE9F34704460E46924601A90122184655
:106A50009946FFF70DFE1B4F10B3019D4FF0000844
:106A6000AA1CC84508EB020123D11748002101F0F8
:106A700062FF80F31000000440EA1440E4006B1C45
:106A800004F03804DBB2EDB244F0010407EB8303F9
:106A9000033544EA881444EA8624D86047F8254040
:106AA0003B781BB1FFF7C8FE0028FBD102B0BDE860
:106AB000F087C9B207EB81015AF82830CB6008F1A2
:106AC0000108CEE7B42C0020D030002000231A4665
:106AD000FFF7B6BF07B50123019201AAFFF7B0FF88
:106AE00003B05DF804FB07B5CDE9002302236A4635
:106AF000FFF7A6FF03B05DF804FB1FB5CDE9012346
:106B0000069B039301AA0323FFF79AFF05B05DF8E4
:106B100004FB1FB5CDE90023069B0293079B03935B
:106B20006A460423FFF78CFF05B05DF804FB7FB5D0
:106B3000CDE90123089B0393099B04930A9B0593CA
:106B400001AA0523FFF77CFF07B05DF804FB0000F6
:106B500030B50F4CD4F8102403460020114631B94B
:106B6000D96808714AB9C4F810340A6030BDC968E0
:106B70000D79854206D00968F1E7D26814680C6087
:106B80001360F3E701300A28E8D14FF0FF30EDE75A
:106B9000B42C002038B5084B0125D3F810441D70E3
:106BA00004B938BDE3685D71236820465B68984787
:106BB000E3681C68F4E700BFB42C002030B5C3883C
:106BC00085B004460D4633B1144A00921449154A63
:106BD000284601F078FF217A05291DD0637A4BB150
:106BE000A088FFF709FE104B104953F820202846D3
:106BF00001F069FF227A0E4BA08853F822200392FD
:106C00000021FFF7DDFD039A0A490346284605B037
:106C1000BDE8304001F057BF05B030BD4417030058
:106C20002C17030024170300B417030003350300D7
:106C3000D81703004917030007B503460846197A19
:106C4000052911D05B7A2BB1094A0A49019001F05C
:106C50003AFF01980849019001F035FF019803B00F
:106C60005DF804EB01F024BF002AF8D0F2E700BF82
:106C70004417030003350300411703002DE9F043D7
:106C800085B01F460C9D002395F80C902B7306468B
:106C90000C46904629463846FFF790FFB8F1060F9C
:106CA00009D8DFE808F00412181F283340003146E5
:106CB000284601F008FF002229463846FFF7BCFFAE
:106CC00085F80C9005B0BDE8F0832268314628466F
:106CD00001F0F9FEEFE7D4E900233146284601F040
:106CE000F2FEE8E7A36800933146D4E90023284682
:106CF00001F0E9FEDFE7E3680193A3680093314602
:106D0000D4E90023284601F0DEFED4E7236902938C
:106D1000E3680193A36800933146D4E90023284631
:106D200001F0D1FEC7E76369039323690293E36827
:106D30000193A36800933146D4E90023284601F06B
:106D4000C2FEB8E708292DE9F74F80460E461746E0
:106D50001C463DD800251B7B257321461046019318
:106D6000FFF72CFFDFF88CA0DFF88CB0AE4232D9F1
:106D700018F805205946204601F0A5FE0135082DDA
:106D8000F4D11B49DFF874A0DFF874B0204601F09D
:106D90009AFE4FF000094E4524D918F809507E2D6F
:106DA0001ED828460AF0B6FA002814BF2A462E221A
:106DB0005946204601F087FE09F10109B9F1080F93
:106DC000E9D1012221463846FFF736FF019B2373A4
:106DD00003B0BDE8F08F5146204601F074FECDE7C8
:106DE0002E22E5E75146204601F06DFEE4E700BFA4
:106DF0005D17030059170300531703005B170300C7
:106E00005F170300C30710B507D4F023054A4008F5
:106E1000145C23401943115410BD0901C9B20F235A
:106E2000F4E700BFA031002030B5094B1C78094BB6
:106E3000196800239C4202DC0022104630BD11F884
:106E40003350854201EBC302F7D00133F2E700BFB4
:106E50006C310020B031002013B504460191FFF7DA
:106E6000E3FF38B143682BB10199204602B0BDE879
:106E70001040184702B010BD034B044819680022A7
:106E8000490800F08ABA00BF703100207831002034
:106E900010B5C0B2FFF7C8FF0446007803F096F8BB
:106EA00063785A1E53425341834208D1044BD3E9BD
:106EB0000023134303D1BDE81040FFF7DDBF10BD31
:106EC0009831002037B54308374AD35CC2074CBF1E
:106ED0001B0903F00F0304460D46042B25D8DFE8F9
:106EE00003F003262F3C4000F9B10121FFF78AFF90
:106EF00000230DF107008DF8073000F03BFB012067
:106F0000A4F12003C4F12001284A20FA01F100FA7B
:106F100003F30B43A040D2E9004120430B43C2E9F5
:106F200000039DF8070000F049FB03B030BD0029C5
:106F300018BF0221204603B0BDE83040FFF762BF12
:106F400049B10321FFF75EFF0121204603B0BDE8F0
:106F50003040FFF781BF0121ECE70029E5D1042192
:106F6000E8E709B10321E5E7FFF74CFF2946204692
:106F7000FFF772FF0DF107008DF8075000F0FAFAE5
:106F80000120A4F12003C4F12001084A20FA01F1F4
:106F900000FA03F30B43A040D2E9004124EA0000C9
:106FA00021EA0303BBE700BFA03100209831002095
:106FB0002DE9F041124E134F00243378A34208DC30
:106FC000114BD3E90023134318D0BDE8F041FFF77C
:106FD00053BF3D6805EBC40815F8340002F0F6FF16
:106FE00098F801305A1E53425341181A4142414108
:106FF00015F83400FFF766FF0134DEE7BDE8F081E5
:107000006C310020B031002098310020092AF7B5FA
:1070100005460C4616463ED902F010FFE8B11F4B5C
:107020001F481D601F4B204F1C70204B0021102259
:107030001E600AF0D4F91E4B00200021C3E90001B4
:10704000013CE4B20326FF2C0DD11A4A1A48002154
:1070500003B0BDE8F04000F095B902F0B7FE00289B
:10706000DDD003B0F0BD9DF8063015F834008DF882
:10707000046005EBC40223F007038DF8063001A974
:1070800093788DF805303A4602F0E2FE013CE4B216
:107090000028D8D0E5E70720E3E700BFB0310020A3
:1070A000A03100206C310020916E02007031002070
:1070B00098310020B16F0200F817030070B5084D39
:1070C000084E00242B789C4201D3002070BD336809
:1070D000012113F8340002F033FF0134F2E700BF5E
:1070E0006C310020B03100201FB50021039001AAAF
:1070F00044F20100CDE9011100F030F805B05DF86F
:1071000004FB000082B001238DF807309DF80730A2
:10711000114B1860596044F2010188429A6012D004
:1071200044F20201884206D1DA60DA6812689A6194
:10713000DA685268DA6172B69DF80730002BFBD12D
:1071400062B602B070471A611A6992685A611A6988
:1071500012689A611A69ECE7B4310020F0B506466E
:1071600087B00F46154672B6FFF714FDFFF764FBB4
:107170000028FBD1244B254CE41AE40844F2010317
:1071800024049E4244F001042BD00BD8012E14D0CD
:1071900041F201039E4222D01D493A462046FFF7A4
:1071A00099FC0EE044F202039E42F5D1D5E900328B
:1071B00018492046FFF797FC03E017492046FFF7E0
:1071C00085FC164BD3F8F030DB0700D500BE2A460D
:1071D0003946304607B0BDE8F040FFF793BF10498D
:1071E000ECE7AA680592104602F04AFA296802976D
:1071F00001916968009103460A49059A2046FFF704
:1072000096FC0949DAE700BF8C150300BC150300A2
:107210008F1803003B180300FC17030000ED00E08B
:1072200019180300551803007B18030010B5D0E9A6
:107230000243D1E90202A04272EB03032CBF0120FA
:10724000002010BD08B50A4800F0EBFA094AD2E95F
:107250000031C018084BD3E9002341F100019042EE
:1072600071EB030303D210F1807041F1000108BDFE
:10727000202B0020D83100205032002037B50546A1
:107280000C460A4801A901F08AFA60B10570446011
:1072900001A9064801F0ADFA18B1054800F0C6FA98
:1072A000002003B030BD0420FBE700BF3C320020CB
:1072B000202B002038B5184B1B78044613B9002545
:1072C000284638BD0028FAD0037F03F0FF05002BC5
:1072D000F5D0FFF7B7FFD4E90223904271EB030327
:1072E00014D3236903B92377D4E90530984721697A
:1072F0000029E4D0237F03F0FF05002BDFD0D4E981
:1073000002325B1842F10002C4E90232034821460E
:1073100002F071F9D4E700BFE0310020B818030093
:1073200013B5114B114918680190082310485822D1
:1073300001F000FA044698B90E4A0F4801A900F07E
:1073400061F9044660B90C48012100F04DFA0123AF
:107350000A4A0948194600F0AFF9094B01221A7090
:10736000204602B010BD00BFB2180300E431002077
:107370003C320020E5730200202B0020FFFF7F003D
:10738000E03100203AB103685A614A1E514251412E
:107390001961002070470720704738B5037F044605
:1073A0000D4683B98261FFF74DFF2369281841F12B
:1073B0000001C4E9020103B1256121460020BDE8B6
:1073C0003840FFF75BBF002038BD0023014603773C
:1073D0000120FFF753BF0000014800F022BA00BFB0
:1073E000202B00202DE9F347064600F005FA40B1B6
:1073F000584AD2E9003113F1807341F10001C2E92A
:1074000000310021304600F006FA38B1524C2368B2
:1074100023B12068FFF74EFF00232360012130468F
:1074200000F0F9F920B1FFF70DFF4C4BC3E9000163
:107430004B48494D4B4C4C4F01A901F0EAF900284B
:1074400042D1DFF82081444CDFF82491404602F01D
:10745000E8F82368002872D07BB12368D0E9025293
:10746000D3E902138D4272EB03032AD223681B7FF8
:107470001BB12168404602F0BEF8404602F0CBF84E
:10748000D0E9027A0546FFF7DDFE381A6AEB010AF9
:1074900001287AF1000345DBB0F5350F40D3FFF743
:1074A0009BFF324A02444FF496030021484600F005
:1074B00023F900283ED1236813B9304600F0F4F8D0
:1074C000256002B0BDE8F0870378012B1DD0022BA8
:1074D00009D14FF00008204602F09DF8002836D070
:1074E00080F81C80F7E73BB941680B7F23B9012383
:1074F0000B77204602F07FF801A9194801F0B4F992
:1075000001A9174801F085F999E741682B6899426C
:1075100002D100232B60EFE7204602F085F8EBE76D
:10752000AA68C0E70021484600F06BF92846FFF73B
:10753000C1FE01E00D28F9D00023236086E7002B6F
:10754000BFD1304602B0BDE8F04700F0B1B801232A
:107550003B70D1E7D8310020583200205032002053
:107560003C320020B8180300E0310020FFFFB400D7
:10757000202B002070B5EFF3108672B60C4A946889
:1075800001239CB993600B4B0B4DD3F8801029401D
:107590001160C3F88050D3F8841051604FF0FF326F
:1075A000C3F88420047006B962B670BD0370FAE7B0
:1075B0005C32002000E100E0FC06FFBD084B9A6849
:1075C00010B55AB150B9EFF3108172B6054A1C6874
:1075D00014605C685460986001B962B610BD00BF69
:1075E0005C32002000E100E0435882B03BB1002350
:1075F000435043580193019B012002B07047184645
:10760000FBE70000F8B5204B4479204E43F82420D6
:107610001F4A204B06EBC4049B1A2279DB081B048B
:1076200032B143F002001C49FFF750FA0820F8BDC0
:1076300002680C88C2F8084590F904508A780479E9
:107640005201002DD2B219DB14494F1987F80023DB
:1076500001226D0904F01F0402FA04F441F82540E8
:10766000427906EBC201012446F832000C7143F066
:1076700003000B49FFF72AFA0020D8E7094904F074
:107680000F040A55ECE700BF70320020683200207A
:107690008C150300CC150300C418030000E100E0C2
:1076A000E618030014ED00E0036801221A60704739
:1076B000036801225A60704773B501F15005AD00AF
:1076C0000068ADB24FF480348C400026C0F8084307
:1076D000C0F84843465101F5A8714559019522F07B
:1076E0007F42019D40F82120C0F844430BB1C0F80F
:1076F000044302B070BD00002DE9F74F0D4622F0A3
:107700007F4402684FF4803705F150068F40804671
:10771000B60002EB8500C2F84873B6B2C2F808732F
:10772000D2F8041599464FF0000BD0F84035C0F858
:10773000401542F806B05B1A9259009223F07F433D
:10774000012B009A4FEA850A0CD1264B4FF480603A
:1077500043F001039847D8F8003043F806B09B592E
:107760000193019BD8F80010D1F80465C1F8447367
:10777000A31B23F07F43012B1CD11A4B05F5A875E1
:10778000013443F0010341F825404FF480609847ED
:10779000D8F80030D3F804359E4209D1D8F800302B
:1077A0000020C3F84473C3F8047303B0BDE8F08F3E
:1077B0000D20FAE78A44C9F1FF13CAF84045D1F811
:1077C0000405221A013A22F07F4203F57F439342D7
:1077D000EED3002AE2D10134CAF84045D1F804358D
:1077E0009842DAE70019030003680222C3F8442331
:1077F00009B1C3F80423704700684FF48271FFF7A2
:10780000F3BE4FF4803303FA01F10368C3F8481361
:10781000C3F80813704750318900006889B2FFF738
:10782000E3BE0368D3F804057047000090F9043004
:10783000002B09DB5A09012103F01F0301FA03F3AE
:107840004032024941F82230704700BF00E100E0B9
:10785000024B034A1B681068184700BF70320020B3
:107860006832002070B5064D0646002455F8043BEA
:107870000BB1304698470134042CF7D170BD00BFDE
:10788000803200204388033300EB830399420BD3FB
:1078900082884FF6FF739A4208D0038833B180681C
:1078A000431C5842584170470220704701207047DE
:1078B000033080B240F2FE33984230B51FD8134BEC
:1078C0001A783AB91C895D892C440444A4B2B4F5F1
:1078D000806F0AD91A7DAAB99A8BDC8B22440244A4
:1078E00092B2B2F5806F0DD801220A80144614229C
:1078F00002FB04335A8910445881002030BD48F2FD
:107900000860FBE748F20660F8E700BFB4320020E9
:107910000B4A0C495388142000FB0311CB6833B980
:107920000420496810700122074801F061BB074933
:107930000523137002238B80012209680023F3E7DB
:1079400098320020B4320020E82A00207C33002046
:1079500007B5002305490093054A0968054808232F
:1079600001F0ACFA03B05DF804FB00BF7C330020EB
:1079700014190300E82A002007B5002301460093EC
:10798000034A0448082301F099FA03B05DF804FBA8
:107990000C190300E82A002013B500230C460093BD
:1079A0000146084A0848042301F088FA38B9074B11
:1079B000142101FB043101230B7402B010BD48F205
:1079C0000D60FAE708190300E82A0020B43200200D
:1079D00037B50A480A4B42689C88196853880325C2
:1079E000033305709BB2002000909B0001EB8401E3
:1079F000044801F063FA03B030BD00BF98320020A4
:107A00007C330020E82A002010B50146044800F02D
:107A1000C6FE1C220446002109F0E1FC204610BDF0
:107A20006833002068B10268084B9A4209D1406867
:107A3000074B984207D00133984214BF032001201E
:107A40007047032070470020704700BFDEC0ADDEE6
:107A5000FE011EF12DE9F0410D460223154F2B804A
:107A6000164600F5805100F108044FF001088C42E1
:107A70000ED2236801330BD02046FFF703FF48B135
:107A80000EB186F80080022809D14FF480632B8064
:107A9000BDE8F081A3683A68934200D93B602B8827
:107AA0006288033313442B806388033304EB83041D
:107AB000DDE700BFAC32002038B5144B14220D4670
:107AC00002FB00302B68446804F58051A3B15C8848
:107AD000033403EB84048C4215D22368013312D0A3
:107AE0002046FFF7CFFE012808D002280BD000283F
:107AF000F1D12C60012038BD0834ECE763880333F2
:107B000004EB8304E7E70020F5E700BFB432002070
:107B1000426873B504460D466AB3234BD9688A425E
:107B200029D31B699A4226D812F0030323D11F4997
:107B30000089098988421ED12068916888421AD13B
:107B40001B4841688A4203D901F580518A420DD30E
:107B500081698A420CD901F580518A4208D20122FA
:107B60002A80B3FA83F0400902B070BD1A46F7E7E5
:107B700048F20963F5E700262E800196288801A9BE
:107B8000FFF79AFF30B92B8801339BB2012B2B8072
:107B9000F3D9E9E7019B226899689142EED16360CD
:107BA000024B1B892381DFE7E82A0020983200205E
:107BB000B43200202DE9F8431C461D4B1B780646C5
:107BC0000F46154673B382B37CB3DFF86C804FF079
:107BD0001409A388012B02D948F2096020E009FBAF
:107BE00003F318F803302BB9A0882146FFF764FF90
:107BF00020B92060A3880133A380EAE723681EB17F
:107C0000998832889142EFD11FB119883A88914200
:107C1000EAD19A68C5E90023064B1B892B81002015
:107C2000BDE8F88348F20160FAE748F20460F7E73C
:107C30009032002098320020B432002008B5074B63
:107C40005888191DFFF738FF18B1BDE80840FFF745
:107C5000BFBEBDE80840FFF75BBE00BF9832002002
:107C60002DE9F047A24FDFF8AC8288B006463B68AA
:107C700023B9A048414600F0CCFD38603D68297822
:107C80004B1E052B07D8DFE813F020007A007A009E
:107C90000C010C01630148F20E641422002103A8B8
:107CA00009F09DFB41F61D539C4208BF00243B6830
:107CB00004941A78023A042A00F20282DFE812F0F1
:107CC000E301EF011102190220022EB18A4B0022BA
:107CD0005A604FF40644E0E72B79032B1CD8DFE809
:107CE00003F014022A35854A1378022B1AD0137D2B
:107CF000022B4FF0010317D114214B43D118002060
:107D0000D0544868FFF738FE03E001232B71FFF7DA
:107D10001FFE002800F0BF80774B00225A6048F217
:107D20000D64BAE70023E7E7734A1370002353603A
:107D300041F61D54B1E772497248002302222B71AB
:107D40008A800968012201F053F9E2E76C4C0026B1
:107D50002E712068FFF710FE6B4BDFF8A0C15B8827
:107D60002568142253430CEB03020CF8036051689E
:107D70005560A588158102222160A280C9E7B5F867
:107D800014A0AA7DDFF87491AEB1022AEB8806D95F
:107D9000142101FB0A91DA1C088902440A81142289
:107DA00002FB0A99C3F57F43B9F80A20FD33134457
:107DB000A9F80A308DE7142303FB0A9318895C683D
:107DC00004EB8004062A69D8DFE802F0274E364427
:107DD0001D5A040041F61D54AA7DEB88022A06D9DB
:107DE000142101FB0A91DA1C088902440A81142239
:107DF00002FB0A99C3F57F43B9F80A20FD33134407
:107E0000A9F80A3049E74148414900234360AB697A
:107E10000360FFF77DFE00285BD00223AB750023D3
:107E200000930423EA182146364801F047F8002859
:107E300031D048F20D64CFE72B69002B14BF032328
:107E40000123AB750023009305F10C02042304F118
:107E50000801E9E70123AB750022EB8800922A694B
:107E60009B0004F10C01DFE703290CBF0523062367
:107E7000AB7500230093042305F10802E118D3E752
:107E80000623AB75224B1988204B5868FFF784FDF9
:107E900004460028A0D108B0BDE8F08748F20E647F
:107EA0009AE7002E7FF415AF2B79012B34D0022BEB
:107EB0003FF43EAF002B7FF4EEAE02232B710DF1A9
:107EC0000A01EB68039303A8CDE90466FFF720FEDF
:107ED00010B948F20964E0E60498BDF80A108388F6
:107EE000EB8003882B81FFF757FD044629E000BF94
:107EF000B03200206833002090320020B4320020DD
:107F00007C330020E82A00209832002074320020C0
:107F100088330020A8320020DFF8009203AA4B46E5
:107F20003146A81DFFF746FE044670B9B9F80410A3
:107F30000498FFF731FD044648F209639C423FF480
:107F4000F7AE002C7FF4A9AEA5E7C9E90066F3E718
:107F5000002E7FF4BEAE6C4B1A7BBAB11E731A783A
:107F6000013A062A3FF697AE01A151F822F000BF70
:107F70001B800200418002005F80020065800200D9
:107F8000977C02006B8002007D8002001A78072A2D
:107F9000E5D801A151F822F0B97F02005F7F02000D
:107FA0005F7F0200DF7F0200F37F02001780020084
:107FB00017800200DB7F02001A89544901321A81BE
:107FC00000225A801A730A78B2FA82F252099A721F
:107FD0000A7DB2FA82F25209DA72012207E04C49B4
:107FE00058688A884088033202448A8002221A70C4
:107FF000B5E75C88454A4649142505FB0422086814
:10800000546850608888108102200C6088800021AC
:1080100011740622EBE70722E9E79A7A32B9DA7A95
:108020008AB900221A705A805A6081E637490022C4
:108030009A72CA68002AF2D1097C0029EFD05A80CE
:10804000FFF7FCFD51E70022DA72304A116A00297D
:10805000E7D192F82420002AE3D00122EFE7FFF7CE
:10806000B7FC42E7FFF754FC3FE75A88274B14213F
:1080700001FB02335868FFF77FFC36E700225A60A5
:10808000FFF766FC31E701228DF80C201A89ADF864
:1080900018209A88DB68ADF81A20059310E00222B8
:1080A0008DF80C201A89ADF818209A88ADF81A209E
:1080B000DA689B7D05929A1F534253418DF81C301C
:1080C00003A8FFF7CFFB0026414612483E6000F0B0
:1080D000CBFB1148012100F081FC00287FF4C7ADE3
:1080E000D9E603228DF80C20DA88ADF818201A8919
:1080F000D0E704228DF80C20DB88ADF81830DFE7DC
:1081000005238DF80C30DBE798320020B4320020D4
:108110007C33002068330020783300208C3300202B
:108120004068FFF79DBD000008B50548012100F03B
:108130003DFC18B9BDE80840FFF792BD08BD00BF7F
:10814000783300202DE9F3419846374B1B780646DB
:108150000D46002B5CD000295DD009884FF6FF73D7
:1081600099425BD06B88002B58D06B689B0758D125
:108170004AB92F890DF102013846FFF799FB30B15A
:1081800002B0BDE8F08113885788ADF8023001A82D
:10819000FFF73AFC044660B9BDF80220234B1421D6
:1081A00001FB023358890338C01B588148F207602D
:1081B000E6E780F8008000238375BDF802308382F3
:1081C0006B68036101211A4800F0FCFB2B882381B6
:1081D000B8F1030F6B88A38004BF0423A3754FF08D
:1081E000000508BF3368E06008BFA3611148E7805D
:1081F000658101A900F0FDFA36B1E36833600E4BEA
:1082000075601B89B5723381FFF78EFF0020B7E7D9
:1082100048F20160B4E748F20460B1E748F2036055
:10822000AEE748F20260ABE790320020B4320020A3
:10823000AC320020683300209832002008B5034695
:1082400007480268042A08D00168064A42F821302B
:10825000012100F0B7FB002008BD48F20B60FBE7EE
:1082600084330020803200202DE9F04F89B01422A1
:10827000002103A809F0B3F87A4B1B7803F0FF0B39
:108280003BB103A8FFF7EEFA0027384609B0BDE876
:10829000F08F744B181D00F0ADFB0028F4D1DBF813
:1082A000F83FDFF8E0A15C1C08BF4FF010234FF04F
:1082B000805208BF5B6911695269581C08BF02FBF4
:1082C00001F3CAF810306849A3F540530022504624
:1082D000CAF80C3000F0C0FD07460028D5D11C2399
:1082E00062496348DFF8A0918C2200F023FA03234F
:1082F000B8463D4601933C46DAF80C6046443046A9
:10830000FFF790FB012862D0032817D000283DD149
:1083100058494FF0140C0CFB04FC01EB0C0201F863
:108320000C0056600CF110020CF1080C0A443046A7
:108330006144FFF78FFB45F0020545E03268531CAE
:1083400002D04D4B9A4234D1321D06F5805110684F
:1083500001302ED104329142F9D1D9F800203AB936
:108360000222C9F80060A9F804204FF0010B0BE0CD
:10837000142262433F4B0220991898543F4A4E60A2
:10838000548001340881A4B245F0010508F58058F5
:10839000B8F5405FB0D1019B012B98BF0025EDB22D
:1083A000022D03D0062D32D0002D39D148F20A67B4
:1083B0006BE7019B2F495A1E93B21422624388181F
:1083C00001934660032088540134A4B2DEE7BBF178
:1083D000000F0DD0274B14226243991802209854A5
:1083E000D9F800204A60254A088154800134A4B29B
:1083F00000222349C9F800603046FFF72BFBB9F88B
:108400000420022A0CBF042208221543BEE7154AA5
:108410000123137003A800235360FFF723FA34E706
:1084200002A8FFF7F1FAC8B10123013D03700A2D3C
:1084300009D8DFE805F006080608070807080F1145
:108440000F000023037102A9094800F0D2F9FFF7D9
:108450006BFE1AE70323F5E70223F3E748F2076709
:1084600013E700BF90320020081B0300DC3200201D
:1084700068330020B4320020DEC0ADDE9832002028
:1084800080330020E82A00207C33002073B50D469D
:108490000446C8B1C1B10DF10601FFF739FBB0B117
:1084A000BDF806300B486668142202FB0300012168
:1084B0000C3000F087FA63682E600C336B60012388
:1084C000A372002002B070BD48F20460FAE748F2DF
:1084D0000960F7E7B432002013B50446A8B10DF1E6
:1084E0000601FFF715FB98B1BDF806200B4B1421D0
:1084F00001FB0233DA6872B1A27A62B1DA68002055
:10850000013ADA60A07202B010BD48F20460FAE7E6
:1085100048F20960F7E748F20560F4E7B43200205A
:1085200002230022FFF70EBE18B103230022FFF73B
:1085300009BE48F204607047114B1B7813B504461E
:10854000ABB14FF6FF73984214D001A8FFF75CFA65
:1085500098B10523037001230371C48001A9094860
:1085600000F047F9FFF7E0FD002002B010BD48F22F
:108570000160FAE748F20360F7E748F20760F4E7C2
:1085800090320020683300200F4B1B7807B5A3B151
:1085900001A8FFF739FA98B10623037001A90B4827
:1085A00000F027F90A4B1A780AB101221A73FFF773
:1085B000BBFD002003B05DF804FB48F20160F9E761
:1085C00048F20760F6E700BF9032002068330020D1
:1085D0009832002007B5ADF80600ADF804100DF193
:1085E000060001A9FFF7E6FA03B05DF804FB07B542
:1085F0001346ADF806000A4600200DF10601FFF70C
:10860000D9FA03B05DF804FB07B51346ADF80600D0
:108610000A460DF106000021FFF7CCFA03B05DF821
:1086200004FB20B119B103680B600020704748F2C9
:10863000046070472DE9F84F3C4B1B780446002B33
:108640006DD000286ED0DFF8E8901222002108F0EB
:10865000C6FE032323804FF0000A4F4614264FF036
:108660000108D9F80410B9F80AB0B9F8085008465A
:10867000FFF7D8F9032808BF2388628804BF03F1F5
:10868000FF33238006FB0A735D44DB681344638079
:1086900023899B446389A4F808B0ADB22B4463815D
:1086A000C5F58065A389ADB2AB4238BFA58101F1A4
:1086B000080501F58051A94229D92B68013326D03C
:1086C0002846FFF7DFF801280AD0022815D0002835
:1086D000F1D1A3880133A3800AE04FF0010AC0E77B
:1086E000E3880133E380E3896A8803331344E38139
:1086F0006B88033305EB8305DDE7E38884F810809E
:108700004D1BE189013301EBA501E380E18109F112
:108710001409BAF1000FE0D00020BDE8F88F48F24C
:108720000160FAE748F20460F7E700BF90320020EA
:10873000B432002010B561B1B2FBF3F403FB142492
:10874000A4B244B9C0E9001484608281C381204688
:1087500010BD0E20FCE70920FAE782B050E8022F96
:10876000C188B2EB324F4FF0000317BF92B241EA1B
:10877000014142EA014104E04268B2EB324F08BFD6
:10878000012340E80212002AE8D18DF807309DF855
:108790000730002B0CBF1120002002B0704737B506
:1087A00050E8013F9DB2C48925448489A54228BF71
:1087B0002D1B0489A54202BFBFF32F8F002207E0C3
:1087C000C5EA030540E80154002CE9D14FF001024D
:1087D0008DF803200193019A0A609DF8031001F0BF
:1087E000FF0321B1006810FA82F003B030BD1846D3
:1087F000FBE70A884B889A4209D150E8012FC2EA68
:10880000024240E80123002BF7D1012070470020ED
:10881000704737B550E8023F1FFAA3F5C488A54258
:1088200002BFBFF32F8F00220DE0C4892544848945
:10883000A54228BF2D1BC3EA054540E80254002C81
:10884000E8D14FF001028DF803200193019A0A60EC
:108850009DF8031001F0FF0321B1006800EB124006
:1088600003B030BD1846FBE70A884B889A4209D10D
:1088700050E8022FC2EA224240E80223002BF7D13F
:10888000012070470020704701F01F024B090121B1
:10889000914000EB830000F065B84B0910B501F082
:1088A0001F040121A14000EB830000F04FF8E040DD
:1088B00000F0010010BD01F01F0301229A404B0996
:1088C00000EB8300D14300F065B84B0901F01F01B4
:1088D00050F82300C84000F0010070472DE9F04730
:1088E0004F1E7F0980460E460137002558F8254067
:1088F00008EB8509E44394FAA4F4B4FA84F44FEA4B
:10890000451A202C06D10135AF42EFD83446204617
:10891000BDE8F0875444A642F5D921464046FFF70A
:10892000BCFF0028F3D0D9F80040E44394FAA4F443
:10893000B4FA84F4E5E710B5034653E8000F0A469D
:1089400043E8002494F0000FF7D110BD10B50346A2
:1089500053E8000F40EA010243E8002494F0000FBE
:10896000F6D110BD10B5034653E8002F42EA0100CE
:1089700043E8000494F0000FF6D110BD10B5034693
:1089800053E8000F00EA010243E8002494F0000FCE
:10899000F6D110BD10B5034653E8002F02EA0100DE
:1089A00043E8000494F0000FF6D110BD10B5034663
:1089B00053E8000F00EB010243E8002494F0000F9D
:1089C000F6D110BD10B5034653E8002F02EB0100AD
:1089D00043E8000494F0000FF6D110BD10B5034633
:1089E00053E8002FA2EB010043E8000494F0000FCD
:1089F000F6D110BD0121FFF7A9BF0121FFF7B2BFDA
:108A00000021FFF7BBBF10B590B1D0E90123016889
:108A10009B1ADBB20A60013BDBB2FF2B026802D17A
:108A20000020107110BD11684C1C14600B70F2E72F
:108A30000E20F7E737B5054600240DF107008DF845
:108A40000740FEF797FD2A686B68116899420ED9B6
:108A5000481E106011F8013CEC68298A01FB0344B0
:108A6000AB6811791B1ADBB2994238BF13719DF8BC
:108A70000700FEF7A3FD204603B030BD37B505461D
:108A800000230DF107000C468DF80730FEF772FD4C
:108A90002A681368591C1160E968641A298AB4FBB2
:108AA000F1F41C709DF80700FEF788FD03B030BD9F
:108AB000826810B504462AB1436901680069984785
:108AC0000023A36010BD0EB403B5039921B104AB1C
:108AD00001AA019300F076F802B05DF804EB03B050
:108AE00070470A2938B504460D4602D10D21FFF71B
:108AF000F8FFA3682268591CA160D554D4E901325B
:108B00009A4204D32046BDE83840FFF7D1BF38BDB4
:108B10002DE9F84F9846DDE90A43154682460F468F
:108B20000A464FF00109AA420FD2C14538BFC146DB
:108B300013F0010B01D16CB900240126B8F1010F2B
:108B40001BD908F1FF386E43F8E709F10109B2FBC0
:108B5000F5F2E8E79B070ED5B8F1000F0CBF302601
:108B60002026A145E9D2013C31465046FFF7B9FF26
:108B7000002CF6D1E0E72026F3E7B7FBF6F39D42A1
:108B8000E1D9DFF83C80B7FBF6F3504618F8031044
:108B900006FB1377FFF7A5FF3346AB42B6FBF5F6AE
:108BA000F1D2BBF1000F02D00CB1A14501D3BDE859
:108BB000F88F20215046013CFFF793FFF4E700BFF8
:108BC0001C1903002DE9F74F054617468846002972
:108BD00000F03E8118F8011B49B92B7B002B00F0F7
:108BE0003781284603B0BDE8F04FFFF761BF252964
:108BF00040F0B780002698F800302D2B424608F14F
:108C0000010823D0302B24D02B2B25D000242A2B55
:108C100002F1010123D13B681A1D1B683A601C4414
:108C20000A4613782E2B26D101324FF0000A104647
:108C300010F8011BA1F1300CBCF1090F1DD80A235B
:108C400003FB0A13A3F1300A0246F0E746F00106DF
:108C5000D1E746F00206CEE746F00406CBE711F86E
:108C6000013CA3F130000928DBD80A2202FB0434BE
:108C7000303C0A46CBE74FF0000A12F8011B01F026
:108C8000FB0068289046F8D0782909D86F290CD8BD
:108C9000632962D022D8252963D0582900F0888022
:108CA00098F80030002B95D197E770390829F7D84C
:108CB00001A353F821F000BF2B8E0200A18C02000B
:108CC000A18C0200C18D0200A18C02009F8D0200C8
:108CD000A18C0200A18C0200B18D0200642901D098
:108CE0006929DDD13A68D2F80090111D89EAE9724C
:108CF0003960A2EBE9724FF0010B092A35DCD3454C
:108D000038BFD3462CB1B9F1000F01DB720700D593
:108D1000013CB30702D5BAF1000F03D0F00701D42C
:108D20004CBB0024B9F1000F2DDAC9F100092D2147
:108D30002846FFF7D6FE06F00302022A04D1BAF154
:108D4000000F01D11CBB0024CDE9004653460A2286
:108D500049462846FFF7DCFEA2E73B681A1D197852
:108D60003A602846FFF7BDFE9AE70A230BF1010B94
:108D7000B2FBF3F2C1E7A345D4D220212846013C3F
:108D8000FFF7AFFECCE77107D5D52B21D0E7A34580
:108D9000DAD230212846013CFFF7A3FED2E739683A
:108DA000CDE900460A1D3A6053460A220968D0E719
:108DB00039680A1D3A60CDE9004653461022F5E7AE
:108DC0003B681A1D3A6016F00106D3F8009024D1D2
:108DD000B9F1000F03D0484608F056FB0646B442EE
:108DE0001DD809F1FF3919F8011F00293FF458AFC8
:108DF0002846FFF776FEF6E728460136FFF771FEB4
:108E000019F806100029F7D1A642BFF449AF202176
:108E10002846013CFFF765FEF6E70026F0E7202133
:108E20002846013CFFF75DFED9E73B681A1D3A6012
:108E3000302128461C68FFF754FE78212846FFF7AA
:108E400050FE00220823CDE900322146102280E79F
:108E500003B0BDE8F08F00BF13B50B46114680B9D3
:108E6000104B1148114AC01A0E23C0080093104B32
:108E70000004104940F00100FDF73FFE0E2002B053
:108E800010BD4BB9074B08480B4AC01AC0080E2347
:108E900000930004064BECE703601B6802B0BDE8DA
:108EA000104018478C150300EC1503002C19030023
:108EB000E81A030031190300601903002DE9F74394
:108EC000DDF8288088B93E4B3E483F4AC01AC008AA
:108ED0000E243E4B009400043D4940F00100FDF794
:108EE0000CFE204603B0BDE8F0834AB9344B354848
:108EF000384AC01AC0080E24344B00940004EBE733
:108F0000D0F800E0BEF1000F09D12D4B2D48324AB8
:108F1000C01AC00808242D4B00940004DCE74BB9AC
:108F2000274B28482D4AC01AC0080924274B009413
:108F30000004D1E74568D5F80490B3FBF9F509FBC7
:108F400015354DB11E4B1F48254AC01AC0080924CB
:108F50001E4B00940004BFE78D0709D0184B194839
:108F6000204AC01AC0081024184B00940004B3E72C
:108F700012F0030F09D0124B12481B4AC01AC00846
:108F80001024124B00940004A6E7C568A9420DD333
:108F90004D1EEC180569AC4208D8CDF82880DEF8E3
:108FA0000C40A44603B0BDE8F0436047044B0548BD
:108FB0000E4AC01AC0081024044B009400048BE72A
:108FC0008C150300EC1503002C190300D51A0300BF
:108FD00031190300AE1903005A1903006D1903007B
:108FE000B4190300DE190300F6190300191A03006F
:108FF000F7B580B92A4B2B482B4AC01AC0080E245B
:109000002A4B009400042A4940F00100FDF775FD49
:10901000204603B0F0BDD0F800C0BCF1000F09D16C
:109020001F4B2048234AC01AC00808241F4B009435
:109030000004E8E74AB91A4B1A481F4AC01AC00888
:1090400009241A4B00940004DDE74568D5F800E0D8
:109050000EF1FF350D4209D0114B1248174AC01AC4
:10906000C0081024114B00940004CCE7C568A94245
:109070000CD34D1E0EFB02540569AC4206D8DCF839
:109080001040A44603B0BDE8F0406047044B0548DB
:109090000B4AC01AC0081024044B00940004B2E725
:1090A0008C150300EC1503002C190300C21A0300F1
:1090B000311903005A1903006D190300401A030007
:1090C000661A030029DF704728DF704770B5036810
:1090D0009E6886B004460D466EB114220021684693
:1090E00008F07DF9A3680593237901952BB1012B35
:1090F0000DD06846B04706B070BD01238DF8003032
:1091000023690293E368039363690493F1E70223FD
:109110008DF80030E3681B030293F5E708467047BB
:1091200000207047024B187A003818BF01207047A2
:1091300030340020034B187A0122B0FA80F05A74C0
:10914000400970473034002008B510461A4608F030
:109150001DF9002008BD000008B5142200210448B4
:1091600008F03DF90348FFF7F8FA002008BD00BFFA
:10917000303400202034002010B5094C094B4360E6
:109180002046FFF737FC40B907F092FA06492074F1
:109190001C2306488C22FFF7CDFA002010BD00BF2B
:1091A00030340020FC1A03009433002020340020C7
:1091B00038B5234D234C2B7A3BB923492348FFF77D
:1091C00028FB206008B9686038BD022324682B7230
:1091D000237973B1012B24D020460321FFF776FFBA
:1091E00000232B726B6018491848BDE83840FFF720
:1091F0003BBBD4E90523D21AB2F5805FD4E9031052
:1092000028BF4FF480529208012A38BF0122194426
:109210001844FFF757FF50B11128DDD101232B72FD
:10922000D2E7D4E903031844FFF74EFFF3E72B7CA2
:10923000002BC9D1BDE83840022000F009B800BFBA
:1092400030340020483400204434002020340020F2
:1092500038B5234C237A002B41D0022B09D10328A7
:1092600030D0204B00221B68E2601A793AB1012A03
:1092700022D0637C7BBBBDE83840FFF799BFD3E9C0
:1092800005128D1AB5F5805F94BF521902F5805210
:109290009A619142EDD102284FF0000308BF1946B0
:1092A0002372104B18BF0D211868FFF70FFF0E49EE
:1092B0000E48FFF7D9FADCE71A6901321A615B69D7
:1092C0009A42E7E7E3680133082B01D8E360D0E76F
:1092D0000023E360DFE7BDE8384007F0D9B938BDC7
:1092E0003034002048340020443400202034002052
:1092F000831E012B01D8FFF7ABBF704700F0FD03C1
:10930000012B08D1044B00225A74421E5042504196
:109310001874FFF74DBF70473034002010B5064C6D
:10932000201DFFF767FB28B9637C1BB9BDE810401F
:10933000FFF73EBF10BD00BF303400202DE9F341E0
:1093400080460D46104801A916461F46FFF727FA2A
:109350000446B0B118220021043008F040F82D0B6B
:109360000123237101A90848C4F80080A760E560C3
:109370006661FFF73EFAFFF7D1FF002002B0BDE8BB
:10938000F0810420FAE700BF203400202DE9F341EA
:1093900080460F460F4801A916461D46FFF7FFF904
:1093A0000446A8B118220021043008F018F8089BE0
:1093B000A36001A9C4E903670648C4F80080656199
:1093C000FFF717FAFFF7AAFF002002B0BDE8F0810F
:1093D0000420FAE7203400202DE9F84FB0F806A069
:1093E0004579D2F800B09DF828900AFB05F5043DB8
:1093F00088460BEB0301A94203F1040488BFA5EBE7
:10940000030BB4FBFAF607460AFB1644C2F800B099
:109410004EB9AAEB04055D4528BF5D46BBF1000FC0
:1094200004D1BDE8F88F3F68013EF1E7043408EB52
:1094300006003C442A46B9F1000F0DD02146ABEBA3
:10944000050B07F0A3FFDA452E443F6855464FF061
:10945000000428BF5D46E1E701462046EFE7FFF73D
:10946000D2BAF8B546790146721E054600239342EA
:109470002D6803D30024A64202D8F8BD0133F6E7D5
:109480000F682846FFF7FAFA01343946F3E72DE969
:10949000F843068ACD1C0746FFF7CCFA043E354454
:1094A0000446B5FBF6F5F0B14FF48073EDB283805E
:1094B000C680013D076081464FF00008A84512D2E2
:1094C0003846FFF7B7FA064648B16379013363714E
:1094D00008F10108C9F8000007608146EEE7204660
:1094E000FFF7BFFF34462046BDE8F8830121043072
:1094F000FFF768BA10B5012104460430FFF76EFA91
:10950000C0B220B92046BDE81040FFF7AABF10BD89
:109510001FB503920022009203AAFFF75DFF05B07A
:109520005DF804FB1FB503920122009203AAFFF726
:1095300053FF05B05DF804FB41DF7047064B10B5E3
:1095400000241C70054B1C60BFF35F8F0449054865
:1095500000F03BF8204610BD543400205834002061
:10956000341B03004C34002007B500230DF1070025
:109570008DF80730FDF7FEFFF1EE103A23F09F0360
:10958000E1EE103ABFF35F8F0A4B4022C3F884210B
:109590009DF80700FEF712F807F08AF820B103B033
:1095A0005DF804EBFFF7C8BF20BF40BF20BF03B08A
:1095B0005DF804FB00E100E0836800225A60C3E923
:1095C00004229A60DA601A6070470B684A68436048
:1095D000934208BF0023016008BF4360704743689F
:1095E00043B10268916852680B449342436004BFE0
:1095F00000234360704770B5446806460D462068F6
:1096000018B1B3682946984718B923682B602560BC
:1096100070BD2468F3E74368186808B102681A60EF
:1096200070474368186870474368186800B9704706
:10963000884203D102681A6001207047034600681F
:10964000F4E7000010B50D49A1F59472914201D8DC
:1096500000200FE08C1AE30F03EBE4035B1002EB36
:10966000C30452F83330834205D802D204F1080211
:10967000ECE7606810BD2146E8E700BF402003002A
:1096800008B5FFF7DFFF024B002808BF184608BDEA
:10969000031F03004FF08053D3F83001421C04BF76
:1096A0004FF0704393F8E00F831F584258417047C2
:1096B0004FF0704393F8E02F062A09D1D3F8E83F22
:1096C000C3F30313033B032B02D8024AD05C704759
:1096D000002070474820030008B5FFF7DBFF40B1CA
:1096E0004FF080538F4AD3F82433C3F30423C2F8D6
:1096F0004035FFF7DDFF10B18B4B8C4A5A67FFF7FF
:10970000C9FF48B14FF080534FF08042D3F8443244
:10971000C3F34233C2F83C35FFF7CAFF30B1844A85
:10972000D2F8FC3023F08073C2F8FC30FFF7B2FFB0
:1097300040B14FF080430022C3F80C21C3F8102140
:10974000C3F83825FFF7B4FF20B14FF08043032260
:10975000C3F8A025FFF7ACFF60B1764B0522C3F834
:1097600010260122C3F888260022C3F818263F22BB
:10977000C3F814264FF08053D3F83021511C09BF91
:109780004FF07043D3F8343193F8E02FD3F8E83F2B
:1097900008BFC3F30313062A4DD1033B032B03D8A1
:1097A000654AD35C002B46D04FF08052634BD2F811
:1097B0000414C3F82015D2F80814C3F82415D2F8FD
:1097C0000C14C3F82815D2F81014C3F82C15D2F8CD
:1097D0001414C3F83015D2F81814C3F83415D2F89D
:1097E0001C14C3F84015D2F82014C3F84415D2F85D
:1097F0002414C3F84815D2F82814C3F84C15D2F82D
:109800002C14C3F85015D2F83014C3F85415D2F8FC
:109810003414C3F86015D2F83814C3F86415D2F8BC
:109820003C14C3F86815D2F84014C3F86C15D2F88C
:109830004424C3F87025FFF72DFF48B14FF0805343
:109840004FF08042D3F8583203F04F03C2F8E43EA1
:10985000FFF720FF48B14FF08043D3F80024D20730
:1098600044BF6FF00102C3F800244FF08053D3F8D7
:109870003021062A0ED1D3F83431033B032B02D812
:109880002F4AD35C33B12F4AD2F83C3743F480637C
:10989000C2F83C37264AD2F8883043F47003C2F845
:1098A0008830BFF34F8FBFF36F8F4FF01023D3F883
:1098B0000022002A03DBD3F80432002B2EDA224BDD
:1098C0000122C3F80425D3F80024002AFBD04FF06E
:1098D00010221521C2F80012D3F80024002AFBD070
:1098E0004FF010231522C3F80422174BD3F800249D
:1098F000002AFBD00022C3F80425D3F80024002A54
:10990000FBD0BFF34F8F0A49104BCA6802F4E062E4
:109910001343CB60BFF34F8F00BFFDE70C4B0D4AE5
:109920001A6008BD0030014000C007400DF0ADBA1C
:1099300000ED00E0005000404020030000C0004067
:10994000442003000010004000E001400400FA053C
:10995000282B00200090D003054A4FF0A043105C54
:10996000D3F8043523FA00F0C04300F0010070473B
:1099700050200300044B1A5C012393404FF0A04297
:10998000C2F80C35704700BF50200300044B1A5C2E
:10999000012393404FF0A042C2F80835704700BF42
:1099A0005020030008B50020FFF7F0FF0120FFF76B
:1099B000EDFF0220FFF7EAFFBDE808400320FFF7B4
:1099C000E5BF08B50020FFF7D5FF0120FFF7D2FF64
:1099D0000220FFF7CFFFBDE808400320FFF7CABF12
:1099E000074A4FF0A041105CD1F8043501228240B3
:1099F00022EA03001340C1F80805C1F80C3570478E
:109A000050200300054A4FF0A043105CD3F81035F6
:109A100023FA00F0C04300F0010070474C2003001F
:109A20000D2809D00E2809D00F2809D010280CBF06
:109A300003204FF0FF30704700207047012070472F
:109A400002207047014B185C704700BF4C20030098
:109A5000C20708B501460CD54FF0A0430322C3F856
:109A60004427C3F84827C3F84C27C3F85027FFF70B
:109A700099FF8B070AD54FF0A0430C22C3F8342777
:109A8000C3F83827C3F83C27C3F8402708BD0000B7
:109A900038B5074C051E04F1080318BF1C4623689F
:109AA0002BB11A6822605B6828469847F7E738BDF3
:109AB0006434002020B9054B01225A70FFF7E8BF3B
:109AC000012802D1014A9070F8E770475C34002009
:109AD00020B9034B01225A70FFF7DABF704700BF6D
:109AE0005C34002038B50E4C2378B3B90D48636060
:109AF000A3602361E36000F0E7F8054606F0D8FDB7
:109B000008B900F0EDF801232370074BD3F80034B7
:109B10000BB10123A370284638BD8525F5E700BFAA
:109B20005C340020B59A02000000014037B50D4CAE
:109B300000230DF107008DF80730FDF71BFDE368EA
:109B4000013BE360E36833B9074BD3F8005415B920
:109B500000F0D8F8A5709DF80700FDF72FFD03B0C1
:109B600030BD00BF5C34002000000140012813B567
:109B70000CD0032820D038B9134B0122C3F8802021
:109B8000BFF34F8FBFF36F8F02B010BD0F4C002398
:109B90000DF107008DF80730FDF7ECFC23780BB9C9
:109BA000FFF7A0FFE3689DF807000133E36001239E
:109BB000A370FDF703FDE7E700F092F802B0BDE8FF
:109BC0001040FFF7B3BF00BF00E100E05C340020AD
:109BD0001FB503788DF800304368019383688DF8D2
:109BE0000830C368054A0393054B684653F8213093
:109BF00052F82110984705B05DF804FB703400203E
:109C0000743400201FB503788DF800304368019349
:109C100083688DF80830C368054A0393054B68468E
:109C200053F8213052F82110984705B05DF804FB35
:109C30007034002074340020F0B5194B90F800C047
:109C400091F81DE043F82C20164B16460A6943F89C
:109C50002C20154B03F80CE00C4607460FCC89B0BE
:109C60006D460FC594E80F0085E80F00CDF810C0D1
:109C7000BEF1000F09D0002E0C4A694608BF3246DB
:109C8000381D00F083FD09B0F0BD002E084A69467A
:109C900008BF324607F10C0000F05AFBF3E700BFA3
:109CA000743400207034002078340020D19B0200EE
:109CB000059C020000F18040002382B0036003682D
:109CC0000193019B02B07047044A137923B9012123
:109CD0001060918018467047852070477C340020C2
:109CE000074B1A68D20704D4C02283F8002301224C
:109CF0001A604FF080430122C3F81825704700BF57
:109D000000E100E04FF0804208B50223C2F80833BA
:109D10004FF48270FFF7CEFF0123D360D2F81834DE
:109D2000DB03FBD408BD00004FF0804110B5D1F833
:109D3000003163B14FF48070FFF7BCFF0D4B5879D1
:109D40000122C1F8082310B95A711B6898474FF0D7
:109D50008042D2F8043163B14FF48270FFF7AAFF5A
:109D60000223C2F80833034BBDE810401B680120F2
:109D7000184710BD7C34002000F1804000F5C04041
:109D8000002382B0036003680193019B02B0704717
:109D9000800000F1A040D0F8002722F44032C0F843
:109DA0000027D0F8003743EA0141C0F80017704798
:109DB000054B4FF0FF32072843F8202084BFC0181E
:109DC00080F84820704700BF8434002010B518493F
:109DD00091F8583053BB4FF0FF3222FA03F0C0071E
:109DE00048BFC81803F1010348BF80F83020202B7A
:109DF000F3D10024E0B20134FFF7DAFF0C2CF9D1E3
:109E00000C4B0022C0204A6583F8060340201860EE
:109E10004FF4BE70FFF7B0FF074B4FF00040C3F8A0
:109E20000403012381F85830104610BD0820FCE7D8
:109E30008434002000E100E000600040034B93F810
:109E40005800003818BF0120704700BF843400203C
:109E5000F0B5394E331893F93030002B69DA8D782C
:109E6000C5F34005002D0BBF082300230C24082454
:109E7000A34201D10420F0BD56F82370013743D12D
:109E800037185CB246F8232087F8304015B9F2182D
:109E900082F848008A78550716D4D70736D582004D
:109EA00002F1A042D2F8005725F00205C2F800578F
:109EB000224FC50800F0070C012202FA0CF217F835
:109EC00005C042EA0C027A558A780D7812F0020237
:109ED00025D09B0003F1804303F5C0430002D3F873
:109EE000102522F4473222F44072C3F810252D04C5
:109EF000D3F8102500F4F85005F4403528431043FA
:109F0000C3F810050020B6E70133B1E74D7800F53E
:109F1000E0724FF0A047AD0047F82250C8E7083C78
:109F200046FA84F494F8500040EA851584F85050BD
:109F3000E8E708209FE700BF84340020D8340020E1
:109F400038B5204C251895F93020072A18DD083A35
:109F500044FA82F494F850309B09032B0BD14FF054
:109F6000A043D3F81015C14001F001010231BDE852
:109F70003840FFF70DBF012B0CBF02210321F6E78C
:109F8000D3B2072B1DD8930003F1804303F5C043E0
:109F9000D3F8100540F00100C3F8100502F14000AD
:109FA00040B2800080B2FFF7E7FE51B195F9303042
:109FB00054F823302BB1012303FA02F2024BC3F809
:109FC000042338BD84340020006000404FF0A043DB
:109FD000D3F8103523FA00F000F0010070470000BC
:109FE0002DE9F74F00244E4D01944FF4807201216A
:109FF00002F1804303F5C04390B21B68012B06D1E8
:10A00000D5F804330B4202D0FFF7B6FE0C430432FE
:10A01000B2F5907F4FEA4101EAD1414BD3F87C3150
:10A02000012B0CD14FF4BE70FFF7A6FE4FF0A043FA
:10A0300044F00044D3F820250192C3F82025E3B270
:10A04000D3B1384F00250126344210D0AB0003F1C4
:10A05000804303F5C043D3F81005D3F8101557F823
:10A06000253023B1C1F30141C0F3042098470135E5
:10A07000082D4FEA4606E7D1002C48DA294D4FF06B
:10A08000A048294E4FF00009012716F9013B5A1C40
:10A0900031D0C3F3C20202A90A44DCB212F8042C84
:10A0A00003F03F0A03F0070307FA03F31A4222D032
:10A0B0000AF5E073504658F82330C3F3014BBBF167
:10A0C000020F0CBF03210221FFF762FE07FA0AF319
:10A0D000C8F8203505EB0A0393F9303055F82330E2
:10A0E0004BB1A109032904D0BBF1020F12D1012900
:10A0F00001D15046984709F10109B9F1040FC4D1C3
:10A10000D8F820350193C8F82035002BB9D103B019
:10A11000BDE8F08FBBF1030FEDD10229E8E700BFE6
:10A120000060004084340020D4340020014B1B68C0
:10A13000184700BFE03400200E4B984237B50C465C
:10A1400002D0002003B030BD00230DF107008DF8D0
:10A150000730FDF70FFA084B1D7915B901221C6075
:10A160001A719DF80700FDF729FA002DE9D011209A
:10A17000E8E700BF00200040E0340020034B984295
:10A1800001BF034B00221A601A7170470020004083
:10A19000E03400200023435082B043580193019BD8
:10A1A00002B070470A4610B54FF48E71FFF7F2FF08
:10A1B000136A9168C95C136A01331362C0F81C15F5
:10A1C00010BD8B690A4610B54FF4847123B9FFF7AF
:10A1D000E1FFD0F8183510BDFFF7DCFF536AD168F6
:10A1E000D0F81805C854536A01335362F3E70000EE
:10A1F0001FB501238DF80030044BCDE90110D3E9E0
:10A2000000126846904705B05DF804FBE834002072
:10A2100030B54D4DD5F804339A0585B051D5D5F8F4
:10A220002431002B4DD04FF492712846FFF7B2FF36
:10A230004FF40173C5F80833444B93F829200AB949
:10A2400001226A60404902228DF80020D1F8802462
:10A25000C1F8802403929A690292DA68019200227E
:10A26000C3E906226846D3E9001290473648D0F881
:10A270001C315BB1354A5169136A99424DD992F844
:10A280002830002B49D11146FFF78CFF2E48D0F81B
:10A290004431002B56D04FF4A271FFF77BFF2B4BBC
:10A2A00093F829200AB1012202609A69002A49D054
:10A2B000586AD96800229A6105B0BDE83040FFF7BE
:10A2C00097BFD5F804335B07D0D5D5F80831002BFC
:10A2D000CCD01E4C1C482146FFF773FF636AA2696D
:10A2E0009A42C3D1E369E1684BB1A3612369E3609A
:10A2F0000023606AE3616362FFF77AFFB6E794F8D0
:10A3000029300BB901236B600F4B4FF40172C3F876
:10A3100008230023606AA361EEE70B484FF48E71B7
:10A32000FFF738FF5369002BB0D051690291002329
:10A3300091688DF80030019153616846D2E90013AD
:10A340009847A3E705B030BD00200040E834002066
:10A350002DE9F843534D90F804802C2303FB085358
:10A36000064693F82A300C469146002B40F0968022
:10A370004D490068FFF7E0FE0746002840F0908056
:10A3800022683068511C0BD04FF0A041012393404C
:10A39000C1F8083502F5E0734FF0030C41F823C013
:10A3A00061684B1C1FBF01F5E0734FF0A04C4FF0EC
:10A3B000000E4CF823E0A369C0F8243594F814C0CB
:10A3C000637DBCF1010F4CEA0303C0F86C35C0F8A3
:10A3D0001415C0F80C251DD1A268531C1FBF02F52F
:10A3E000E0734FF0A0414FF0000C41F823C0E36848
:10A3F000591C0BD04FF0A04C01219940CCF8081506
:10A4000003F5E0714FF0030E4CF821E0C0F8083579
:10A41000C0F810252C2202FB08F2AB18C3F80490F8
:10A420002369AB50B9F1000F20D04FF48E71247F17
:10A43000FFF7B0FE4FF4A2713068FFF7ABFE326851
:10A440001A4BC2F80433130B42F307326101002A9E
:10A45000C9B21EDB1648841884F800130121520982
:10A4600003F01F0301FA03F340F82230336804229B
:10A47000C3F800252C2303FB08530022C3E906225E
:10A4800083F829205A61012283F82A203846BDE842
:10A49000F883084A03F00F03D154E7E70827F5E7EC
:10A4A0001127F3E7E834002011A202008000020027
:10A4B00000E100E014ED00E0F8B503680579304CE8
:10A4C0000022C3F800252C2202FB05425268A2B1EB
:10A4D0002C4AC3F808231A0B43F30733002B0CDB79
:10A4E00002F01F015B0901228A402033264941F80E
:10A4F0002320BFF34F8FBFF36F8F0068D0F80C6538
:10A50000D0F81415D0F80835D0F810254FF0FF37E3
:10A51000BE42C0F8147518BF06F5E076C0F80C7599
:10A52000C0F80875C0F810751EBF4FF0A0474FF077
:10A53000020C47F826C04E1C1FBF4FF0A04601F585
:10A54000E071022746F82170511C1FBF4FF0A04157
:10A5500002F5E072022641F822605A1C1FBF03F583
:10A56000E0734FF0A042022142F82310FFF706FEED
:10A570002C2303FB0544002384F82A306360F8BDD4
:10A58000E83400208402020000E100E00279044B7C
:10A590002C2101FB02335869003818BF0120704795
:10A5A000E83400202DE9F84F064690F804808946EB
:10A5B0009246FFF7EBFF044600283CD1204F2C25A4
:10A5C00008FB057B4FF48E71CBF814A0CBF80890F4
:10A5D000CBF820008BF828003068FFF7DBFD3068EF
:10A5E000012383605946FFF7DDFDDBF804305D464B
:10A5F0001BBB3068DBF814402B6A9C4211D83368CF
:10A60000D3F81C21002AFBD00122DA6000202C2381
:10A6100003FB087700237B61BDE8F88F95F82830AD
:10A620003BB9D0F81C31002BF8D05946FFF7BAFDE2
:10A63000E2E70F20EBE71120EEE72046ECE700BF52
:10A64000E83400200023435082B043580193019B1B
:10A6500002B070471FB501238DF80030044BCDE9DF
:10A660000110D3E900126846904705B05DF804FB7D
:10A67000143500207FB5434AD2F82461002E60D003
:10A6800010464FF49271FFF7DDFF02238DF8003082
:10A69000D2F88034C2F880340393D2F83C35029368
:10A6A000394BDA6801920022C3E906226846D3E9F1
:10A6B000001290473348D0F8443173B14FF4A2717F
:10A6C000FFF7C0FF304B9A693AB10022C3E9062276
:10A6D000D968D0F83C05FFF7BDFF2A48D0F82031F3
:10A6E000ABB14FF49071FFF7ADFF0123C360264B70
:10A6F0005A6962B1D0F84C150291002299688DF820
:10A70000002001915A616846D3E9001290471D4824
:10A71000D0F858319BB14FF4AC71FFF793FF1A4B4F
:10A720005A6962B1D0F84C150291002299688DF8EF
:10A73000002001915A616846D3E90012904704B0A5
:10A7400070BDD2F81031002BB4D04FF48871104690
:10A75000FFF778FF0C4BD2F83C0599698842A9D1E4
:10A76000DC69D96864B1D2F8005225F02005C2F83E
:10A7700000521A699C61DA60DE61FFF76BFF99E7AE
:10A780009C61FAE700200040143500202DE9F843D1
:10A790005A4E90F80480242303FB0863044693F880
:10A7A00020300D469146002B40F0A38054490068AC
:10A7B000FFF7C2FC0746002840F09D802A68206809
:10A7C000511C0BD04FF0A04101239340C1F8083534
:10A7D00002F5E0734FF0030C41F823C069684B1C8D
:10A7E0001FBF01F5E0734FF0A04C4FF0000E4CF886
:10A7F00023E0AB69C0F8243595F814C06B7DBCF13B
:10A80000010F4CEA0303C0F86C35C0F80C25C0F802
:10A8100014151DD1AA68531C1FBF02F5E0734FF039
:10A82000A0414FF0000C41F823C0EB68591C0BD03D
:10A830004FF0A04C01219940CCF8081503F5E071C8
:10A840004FF0030E4CF821E0C0F80835C0F8102591
:10A85000242202FB08F2B318C3F804902B69B3500A
:10A86000B9F1000F2FD04FF488712A7FFFF7EAFE6D
:10A8700020684FF49071FFF7E5FE20684FF4927165
:10A88000FFF7E0FE20684FF4A271FFF7DBFE4FF404
:10A89000AC712068FFF7D6FE23681A49C3F8041389
:10A8A000190B43F307335201002BD2B21CDB1648BD
:10A8B000C51885F8002301225B0901F01F0102FA87
:10A8C00001F140F8231023680822C3F8002524234F
:10A8D00003FB08660023C6E906337361012386F88B
:10A8E00020303846BDE8F883084B01F00F015A5478
:10A8F000E9E70827F5E71127F3E700BF1435002043
:10A9000075A602001003420000E100E014ED00E033
:10A91000F8B5444C0579242303FB054302465B68E4
:10A920000068ABB1404BC0F8083340F30733002B4D
:10A930004FEA10310CDB01F01F065B090121B14029
:10A9400020333A4E46F82310BFF34F8FBFF36F8F7B
:10A95000D0F8003223F02003C0F80032242303FB98
:10A9600005439B692BB14FF4A271FFF76BFE0123E6
:10A9700043604FF4AC71FFF765FE0123C3602423ED
:10A9800003FB0543D0F858110029FBD0996919B190
:10A99000D0F844110029F5D00023C0F80035136821
:10A9A000D3F80C75D3F81465D3F80825D3F810152F
:10A9B0004FF0FF3C6745C3F80CC518BF07F5E077BB
:10A9C000C3F814C5C3F808C5C3F810C51EBF4FF0BF
:10A9D000A0434FF0020C43F827C0771C1FBF4FF075
:10A9E000A04306F5E076022743F826704E1C1FBFF1
:10A9F00001F5E0714FF0A043022643F82160531C9B
:10AA00001FBF4FF0A04302F5E072022143F822106D
:10AA1000FFF7B4FB242303FB0544002384F8203014
:10AA20006360F8BD143500201003420000E100E02F
:10AA30000279044B242101FB02335869003818BF06
:10AA4000012070471435002001F06043B3F1005F2E
:10AA50002DE9F0470646884692463BD190F804908F
:10AA6000FFF7E6FF0446002836D11D4F3068242545
:10AA700005FB09754FF49071C5F814A0C5F808805E
:10AA8000FFF7E0FD4FF4AC713068FFF7DBFD336892
:10AA90006A69A968C3F84415C3F8482501229A6079
:10AAA0006A68DAB9D3F82021D3F858011AB9002816
:10AAB000F8D00F2007E00028FBD10122DA60D3F89C
:10AAC0005821002AFBD0242303FB097700237B6154
:10AAD000BDE8F0871020FBE71120F9E72046F7E7F3
:10AAE0001435002000F1804000F5E040002382B0E2
:10AAF000036003680193019B02B07047F0B5524BAD
:10AB0000524CD3F8043185B0002B3DD094F82E2060
:10AB10004FF48270FFF7E6FF2AB394F82F3013BB8F
:10AB2000494AD2F80031002B32D04FF48070FFF741
:10AB3000D9FF638B94F82D00834250D921891B1AC9
:10AB40009BB289B26383CB1A616801EB4303C2F8FD
:10AB50002C36C2F830064FF48270FFF7C3FF3A4B31
:10AB600001225A6014E0636802932389ADF80C3027
:10AB7000E36800218DF8041033BB2374236801A817
:10AB80009847002384F82F3094F82E30002BC7D13B
:10AB90002D4BD3F810315BB14FF48870FFF7A2FF53
:10ABA0000023237402238DF8043001A823689847FA
:10ABB000254BD3F81431EBB14FF48A70FFF792FFB5
:10ABC0000023237405B0F0BD208B60836360208177
:10ABD000E160002AD2D11C4B01221A60CEE7BAD123
:10ABE000E368012184F82F1013B100216183AEE7DF
:10ABF0006383B0E766694FF000470125002EE1D07E
:10AC0000B6FA86F227FA02F34632920026EA0306E3
:10AC100002F1804303F5E0431B68002BEED01046A1
:10AC2000A2F58C72FFF75EFFD30882F00402C2F334
:10AC300080028DF808308DF8045023688DF80920C3
:10AC400001A89847DAE700BF0070004038350020BF
:10AC500038B5204A92F82C300446002B37D11160C9
:10AC60001D490078C1F8F0056078C1F8F4050125A8
:10AC7000E078137482F82D30536182F82F306FF032
:10AC8000004382F82E0082F82C504FF48270C1F8F5
:10AC90000833FFF727FF4FF48070FFF723FF4FF4CF
:10ACA0008A70FFF71FFFA3780C485B01DBB280F8C6
:10ACB0000733802303600223C1F8043392F82E3057
:10ACC0000BB1C1F80453C1F80055002038BD08206D
:10ACD000FCE700BF383500200070004000E100E0D4
:10ACE00070B52A4B1A7C02F0FF05002A4BD10A7975
:10ACF000012A9CBF264CC4F8005500F10C0503EB5B
:10AD00004504247924B993F82D40013483F82D406B
:10AD100003EB4503CC790D7A8E781C715D714B780D
:10AD200036021B0106F4E06603F0300333430E786D
:10AD300006F003063343CE78360306F480563343D9
:10AD4000160406F4E02633434E798979360506F475
:10AD500080160906334301F080710B430C4901EB67
:10AD60000016000100F1804000F5E040012AC6F81D
:10AD70001835C0F81455C0F8104502D80123C1F8A1
:10AD80000035002000E0112070BD00BF38350020E4
:10AD90000070004070B5264A264B05461220C2F8C6
:10ADA00008031C7C022C03D1C2F80403112070BDDF
:10ADB000187C01281CD1D86818B10223C2F80433CA
:10ADC000F4E7DD60198393F82E305BB9D2F80031D7
:10ADD000002BFBD04FF48070FFF784FEC2F82C5696
:10ADE000C2F83016124B0222C3F804230020DEE71B
:10ADF000022093F82E40C2F80403012600201E749E
:10AE00005D601981D8603CB1598393F82D30C2F848
:10AE10002C56C2F83036CAE7C2F82C564FF4807070
:10AE2000C2F83016FFF75EFE16602046BFE700BF8F
:10AE30000070004038350020074B197C0129CAB248
:10AE400008D193F82E00054B10B11A60002070470E
:10AE50005A60704708207047383500200070004065
:10AE60000220FEF7BDBD00002DE9F04780460D46EB
:10AE7000FEF7D6FD0328044610D8012D10D0022D70
:10AE800030D05DB91A48FCF7A0FA1A4B04EB440223
:10AE900013449D78184B1B5DAB4219D0BDE8F08779
:10AEA000144E00EB4003F218F55C5378470053B1A1
:10AEB000DFF84C900E484A464FF48041FCF76DFA9B
:10AEC00008B989F8008027443E440B4BB2781A55E4
:10AED000002DE3D0094B1B68002BDFD02846BDE8CE
:10AEE000F047184700EB4004024804446578EFE758
:10AEF00090350020D0350020E9350020E4350020D1
:10AF00006835002000780221FFF7AEBF08B5094B75
:10AF10001B7853B10020FEF739FD0120FEF736FD06
:10AF2000BDE808400320FEF731BDBDE80840FEF74C
:10AF300039BD00BF69350020F8B57A4C2378054645
:10AF40001BB100232370FFF7E1FF172D00F287806C
:10AF5000DFE805F00C1717425364757F878C878CE8
:10AF6000949999999999C3C8D0D8E3E3FFF7CEFF94
:10AF70006D48FCF72AFA6D4B002204461A702046F1
:10AF8000F8BD0020FEF7E8FCF0B10020FEF7FEFC63
:10AF9000022D0CBF4FF4E1644FF47A64634B1D70D3
:10AFA00000254FF400464FF47A7029464FF4FA62B8
:10AFB0000023E4FB060106F0EDF82A460146BDE851
:10AFC000F8405948FCF7E9B9FEF7D4FC022D0CBF54
:10AFD000C8244FF4C874E1E70020FEF7BDFC40B17F
:10AFE0000020FEF7D3FC4FF44874504B03221A7034
:10AFF000D6E7FEF7BFFCC824F7E70020FEF7ACFC5D
:10B0000038B10020FEF7C2FC4FF47A64474B0422AB
:10B01000EDE7FEF7AFFC4FF4C874F7E70020FEF74A
:10B020009BFC48B10020FEF7B1FC404B05221A7092
:10B0300040F6CD410022C2E7FEF79CFCF5E7002078
:10B04000FEF7CEFC394B06221A70002240F26661F0
:10B05000B5E70020FEF78EFC344B07221A7000245F
:10B060008DE701202070FEF7BBFCEEE70120207089
:10B07000FEF7B6FC00224FF40051A0E7FEF7A1FC5A
:10B080002A4B0C22EAE72A482A4EFCF79EF9D5F112
:10B09000110504461CD0D8B9012D13D0C820454352
:10B0A00021464FF400474FF47A704FF4FA620023C0
:10B0B000C5FB070106F06EF8224601461C48FCF766
:10B0C0006CF904460220FEF755FC0123337056E765
:10B0D0000220FEF75BFC0023F8E7FFF717FF134B96
:10B0E0001222BBE7FFF712FF0020FEF743FC0F4BD5
:10B0F0001322B3E7FFF70AFF0120FEF73BFC0B4BDF
:10B100001422ABE7FFF702FF0020FEF733FC01201B
:10B11000FEF730FC054B1522A0E7FEF752FC034B6F
:10B120001D709CE7E0350020B0350020E835002098
:10B130007035002069350020044B1B68DB0703D500
:10B14000034B1878FFF7F8BE704700BFDC350020CE
:10B15000E835002010B5002914BF03240024FEF7B1
:10B1600071FC800000F1A040D0F8002722F44032AA
:10B17000C0F80027D0F8003743EA0443C0F800378E
:10B18000002010BD032801D8FEF73CBC002070470A
:10B19000044B1B6813F0010301D0FFF7CDBE184626
:10B1A000704700BFDC35002038B51C4B18601C4BC5
:10B1B00010F00204054619601AD01A4B1A480E22E4
:10B1C0001A700F22DA7010229A7111225A72042119
:10B1D00040F23332FBF71AFF044648B9FBF76EFF23
:10B1E000044628B90146114A1148FCF7CBF8044639
:10B1F000EB0711D50120FEF72BFC6CB921460D4A57
:10B200000D48FCF7BFF8044630B9BDE838400B4A9A
:10B210000B480121FCF7B6B8204638BDDC350020CC
:10B22000E4350020D03500207C20030005AF02006B
:10B23000A020030039B10200A420030061AE020087
:10B240009C200300032811D8012A0AD101290FD11B
:10B2500000F10E02D2B20D4B00EB40001A54002058
:10B2600070470129F7D0022904D049B1072070475F
:10B270000022F8E7054B00EB400018444270EEE76F
:10B28000024B00EB400018448270E8E7D035002004
:10B29000032802D80121FFF75DBF0620704708B5DB
:10B2A000012202210020FFF7CDFF08B1072810D1AD
:10B2B000072202210120FFF7C5FF08B1072808D1A6
:10B2C00000210A220846FFF7BDFF10B1072808BF7A
:10B2D000002008BD0388102B10B502D0112B1ED002
:10B2E00010BD1A4C2168B1B901220846FFF7AAFF28
:10B2F00008B1072824D1072202210120FFF7A2FF6D
:10B3000008B107281CD1042202210020FFF79AFF70
:10B3100008B1072814D1236801332360E0E70B4A02
:10B320001368013B1360002BDAD1FFF7B8FF002848
:10B33000D6D0074B1B68002BD2D0BDE81040184771
:10B34000034B1B68002BE6D09847E4E7F435002058
:10B35000F035002008B50020FFF79AFF08B1062855
:10B3600006D10120FFF794FF10B1062808BF002086
:10B3700008BD00000D4B10B518600C4629B1012026
:10B38000FFF700FF40B102232370094B1B6853B93C
:10B39000BDE81040FFF783BFFFF7F4FE08B10B23B1
:10B3A000F2E72070F1E7002010BD00BFF03500206B
:10B3B000F435002076DF70477ADF70477CDF704716
:10B3C0008FDF704733DF7047FBF78EBE0B78072B9C
:10B3D00040D8DFE803F0040E151C232A31381E483C
:10B3E0001E4B1F49C01AC008000440F00300FBF7C1
:10B3F0006DBB1948194B1B49C01AC0080004F4E77B
:10B400001548164B1849C01AC0080004EDE7124849
:10B41000124B1649C01AC0080004E6E70E480F4B4D
:10B420001349C01AC0080004DFE70B480B4B114951
:10B43000C01AC0080004D8E70748084B0E49C01AD4
:10B44000C0080004D1E70448044B0C49C01AC008E6
:10B450000004CAE7704700BFBC1503008C15030049
:10B46000A8200300D6200300052103003321030098
:10B470006221030090210300BF210300ED2103009E
:10B4800008B5FFF7D9FC18B1BDE80840FBF72CBEA2
:10B4900008BD000008B50B4B0B4819784FF6FE723B
:10B4A00005F051FD30F008020BD020F00202112A05
:10B4B00007D043F20142904203D0BDE80840FBF7B9
:10B4C00013BE08BDF8350020343A00200388212B34
:10B4D00013B504463BD005D8102B1BD0112B0CD034
:10B4E00002B010BD3B2B4AD0562BF9D12B482C4B28
:10B4F0002C49C01AC008000447E0294B27482A49B4
:10B50000C01AC008000440F0030002B0BDE81040BB
:10B51000FBF7DCBA224B21482449C01AC0080004BA
:10B5200040F00300FBF7D2FA0720FFF731FE08B125
:10B53000FBF7DAFD1E4BA1881E48198002F0BAFD08
:10B540000028CDD002B0BDE81040FBF7CDBD144BB4
:10B5500012481949C01AC008000440F00400FBF763
:10B56000B5FA0023A0888DF8043001A98DF80530C4
:10B57000FFF726FF0028B3D0FBF7B6FDB0E707487A
:10B58000074B0E49C01AC008000440F00400FBF746
:10B590009DFAA0881321FFF70DFFD1E7BC1503002A
:10B5A0008C1503005E2203001C2203002A220300E4
:10B5B000302B0020E03A002035220300492203000E
:10B5C00073B50B780C46042B23D8DFE803F0313E2B
:10B5D000454C0300274B28482849C01AC0080004DE
:10B5E00040F003000190FBF771FA636824491B786F
:10B5F00001980022FBF777FA636821495B7801988C
:10B600000122FBF770FA2589666801350224A542FC
:10B6100001DA02B070BD3319204613F8023C23B999
:10B62000FEF7B4F90134E4B2F1E7FEF7A3F9F9E764
:10B630001148104B1349C01AC008000440F0030021
:10B6400002B0BDE87040FBF741BA0B48094B0E4908
:10B65000C01AC0080004F1E70748064B0B49C01A9E
:10B66000C0080004EAE70448024B0949C01AC008B0
:10B670000004E3E78C150300BC15030073220300EC
:10B6800097220300B0220300DF2203000F230300F0
:10B690003E23030008B503784BB9054B3B211888BE
:10B6A000FFF788FE18B1BDE80840FBF71DBD08BDD7
:10B6B000302B002070B504780546002C50D140682E
:10B6C0000221FFF767FB08B1FBF70EFD6E68B6F9C4
:10B6D000000005F04BFD364B002205F097FC05F00D
:10B6E00031FD85B2B6F9020005F040FD304B002275
:10B6F00005F08CFC05F026FD40F6B7339D4280B284
:10B7000054D840F654339D422BD9C5F53B643A23B7
:10B7100008345C436FF0630394FBF3F46434E4B2E5
:10B72000244B1C7064235843234BB0FBF5F5EDB25A
:10B730001D701978214B22481A8805F0F5F930F070
:10B74000080209D043F20202904205D043F20142BE
:10B75000904201D0FBF7C8FC1A4A1368013313600A
:10B7600070BD40F6B422954208D95C1B18235C4397
:10B770006FF09F0394FBF3F42A34D0E740F688136C
:10B780009D4206D9541B6FF0180294FBF2F4123458
:10B79000C5E740F634029542C2D95C1B06235C43E0
:10B7A000A3F5AD7394FBF3F40634B8E76424B7E76C
:10B7B0000020EC3FF8350020103B0020302B00200B
:10B7C000743A0020FC35002008B598B103281ED13A
:10B7D0000F4B10481049C01AC008000440F0030085
:10B7E000FBF774F90220FFF7D3FC80B1BDE80840F5
:10B7F000FBF77ABCFFF7CCFC08B1FBF775FCFFF751
:10B80000A9FD08B1FBF770FCFFF7DCFDEDE708BD13
:10B810008C150300BC1503006E23030008B5054812
:10B82000032100F049FE18B1BDE80840FBF75CBCFD
:10B8300008BD00BF0036002010B5044603F060FFCD
:10B84000204603F03BFD23780C2B03D1BDE81040CC
:10B85000FFF7E4BF10BDFBF747BC000013B5074B73
:10B860000193024601A9002311F8014B9442D8B27A
:10B8700002D00133042BF7D102B010BD0D0E0F1012
:10B88000A0F10D0337B505460C46032B33D8DFE88E
:10B8900003F0023D4F6101292FD13848384B394917
:10B8A000C01AC008000440F00300FBF70FF9284657
:10B8B000FFF7D4FF344B1C541A788DF804205A78C3
:10B8C0008DF805209A78DB788DF807302F4B8DF8AE
:10B8D00006202F481A8801A905F044F930F0080223
:10B8E00009D043F20202904205D043F20142904255
:10B8F00001D0FBF7F9FB03B030BD0029D7D11F48B9
:10B900001F4B2449C01AC0080004CCE7012906D106
:10B910001A481B4B2049C01AC0080004C3E700297D
:10B92000C5D11648164B1D49C01AC0080004BAE715
:10B93000012906D11148124B1949C01AC008000448
:10B94000B1E70029B3D10D480D4B1649C01AC00804
:10B950000004A8E7012908D1084B094812491B1A1D
:10B96000DB081B0443F003009FE700299FD1034B32
:10B9700003480E491B1ADB081B04F3E7BC15030040
:10B980008C15030080230300703A0020302B002028
:10B99000743A002094230300AA230300BE2303006B
:10B9A000D4230300E8230300FE2303001224030032
:10B9B0007FB51A4B186859686A4603C2197A117024
:10B9C000D3F80900D3F80D105B7C03AA03C2144915
:10B9D00014481370FFF73CF908B1FBF785FB694683
:10B9E0000020FFF77DF908B1FBF77EFB03A90120DA
:10B9F000FFF776F908B1FBF777FB0B480221FFF759
:10BA0000C9F908B1FBF770FB08480221FFF7C2F93A
:10BA100008B1FBF769FB07B05DF804FB5E24030087
:10BA2000B5B6020090240300683A00206C3A00206A
:10BA3000054BD3F8402132B1D3F80423D20344BFDD
:10BA40000022C3F8402170470090004000B54FF439
:10BA50008041ADB00020FAF79FFE08B1FBF744FB30
:10BA6000FAF7CCFDFBF75CFC08B1FBF73DFB974A0E
:10BA700097480121FBF786FC08B1FBF735FB954A97
:10BA800095480121FBF77EFC08B1FBF72DFB002157
:10BA90000120FFF789FB08B1FBF726FB8F48322214
:10BAA0000421FBF7B3FA08B1FBF71EFBFBF706FB1B
:10BAB00008B1FBF719FB01A90020FFF75BFC08B1F7
:10BAC000FBF712FB9DF80450FDF738FD08B1FBF7BA
:10BAD0000BFB04F06FFD08B1FBF706FB002301A987
